S01F000042617474657279204C6576656C204261722047726170682E73726563CB
S113000009C00EC00DC00CC00BC00AC009C008C096
S113001007C006C011241FBECFE9CDBF0DD031C02B
S1130020EFCF399A379A329AA49A0895369A369924
S1130030FECF84B195B10895F4DF8FE087BB01E072
S113004013E0D7E0CFE0F2DF8B3F910508F408BB63
S11300509C012B5F31092A3F310508F418BB9C0130
S1130060255F31402A3F310508F4D8BB8F3E9240CA
S113007008F0C8BB8FE295E70197F1F700C00000D4
S1090080E2CFF894FFCF6B
S9030000FC
