S01F000042617474657279204C6576656C204261722047726170682E73726563CB
S113000009C021C020C01FC01EC01DC01CC01BC011
S11300103AC019C011241FBECFE9CDBF10E0A0E63D
S1130020B0E0EEE9F1E002C005900D92AA36B10706
S1130030D9F720E0AAE6B0E001C01D92AC36B207C1
S1130040E1F75BD0AAC0DCCF87B1836087B9379A68
S1130050329AA49A0895369A3699FECF84B195B10E
S1130060089597B19C7F97B997B18370982B97B9EE
S1130070089581B5806481BD81B5806181BD81B5FC
S1130080836081BD0895189583E0EBDFE4DF449736
S113009038F485E690E090936B0080936A000895AD
S11300A080E690E090936B0080936A00089581113C
S11300B009C098B3E0916A00F0916B0080818927B0
S11300C088BB089598B3907F98BB98B3E0916A0079
S11300D0F0916B00E80FF11D8081892B88BB089596
S11300E085B7877E85BF85B7806285BF78948895FC
S11300F085B78F7D85BFF8940895BBDFA5DFC4DF86
S113010082E0AFDF87B38F6087BBC4E0D1E00F2EFE
S1130110F3E0DF2EF02D6894EE24E1F86894CC240B
S1130120C2F8F12C98DF8C018C2FC1DFC230D9F0DA
S113013028F4CC2341F0C13061F02DC0C330E9F084
S1130140C43029F128C0CD2F053A124020F5CF2D17
S113015022C0043C82E0180708F0CE2D043A124075
S1130160D0F4CF2D18C0033E82E0180708F0CD2D3F
S1130170033C124080F4CD2F0EC0023083E01807F8
S113018008F0CC2D023E124030F4CE2D04C00130D4
S1110190134008F4CD2DA4DFC5CFF894FFCFA3
S10D019E010103070F010102040828
S9030000FC
