:1000000009C021C020C01FC01EC01DC01CC01BC015
:1000100030C019C011241FBECFE9CDBF10E0A0E64B
:10002000B0E0E8EEF1E002C005900D92AA36B1070B
:10003000D9F720E0AAE6B0E001C01D92AC36B207C5
:10004000E1F743D0CFC0DCCF87B1836087B9379A5F
:10005000329AA49A0895369A3699FECF84B195B112
:10006000089597B19C7F97B997B18370982B97B9F2
:100070000895189583E0F5DFEEDF449738F080E6C9
:1000800090E090936B0080936A00089585E690E07D
:1000900090936B0080936A00089598B3882369F069
:1000A000907F98BB98B3E0916A00F0916B00E80FE5
:1000B000F11D8081892B88BB0895E0916A00F09141
:1000C0006B008081892788BB089581B5806481BDDC
:1000D00081B5806181BD81B5836081BDB5DFCADF37
:1000E00082E0BFDF87B38F6087BB14E0B4DFEC0131
:1000F000812FD3DF123009F441C008F46BC01330F4
:1001000031F1143089F068C085B7877E85BF85B727
:10011000806285BF7894889585B78F7D85BFF89478
:100120009ADFEC0184E0B9DFC130D34068F785B7CE
:10013000877E85BF85B7806285BF7894889585B7AF
:100140008F7D85BFF89487DFEC0183E0A6DFC230A6
:1001500083E0D807C8F6C23ED24048F785B7877E0D
:1001600085BF85B7806285BF7894889585B78F7D78
:1001700085BFF89470DFEC0182E08FDFC33E82E040
:10018000D807A8F6C33CD24048F785B7877E85BF1D
:1001900085B7806285BF7894889585B78F7D85BF48
:1001A000F89459DFEC0181E078DFC43C82E0D807A5
:1001B000A8F611E0C43AD24098F085B7877E85BF93
:1001C00085B7806285BF7894889585B78F7D85BF18
:1001D000F8948CCF113049F311E0C53AD24068F75A
:0801E00010E0EBCFF894FFCF13
:0A01E800010103070F0101020408E2
:00000001FF
